:1000000012C02CC02BC02AC029C028C027C026C0BF
:1000100025C024C023C022C021C020C01FC01EC0D4
:100020001DC01CC01BC011241FBECFE5D4E0DEBF25
:10003000CDBF10E0A0E6B0E0EEE3F6E002C0059030
:100040000D92A43DB107D9F720E0A4EDB0E001C0C6
:100050001D92AA3DB207E1F786D2EFC2D1CF84FF4D
:100060000BC0969A85FF0AC0959A86FF09C0C79A69
:1000700087FF08C0C69A08959698F4CF9598F5CF53
:10008000C798F6CFC6980895CF93C82FC098E7DFDA
:10009000979A85E08A95F1F7000097988FE193E0B1
:1000A0000197F1F700C000008C2F8295807FD7DF89
:1000B000979A95E09A95F1F7000097988FE39FE162
:1000C0000197F1F700C00000CF910895CF93C82F9A
:1000D000C09AC5DF979A85E08A95F1F70000979856
:1000E0008FE193E00197F1F700C000008C2F82951B
:1000F000807FB5DF979A95E09A95F1F70000979881
:100100008FE39FE10197F1F700C00000CF910895C0
:100110008FEF87BB81BB2FEF89EF90E021508040AC
:100120009040E1F700C0000082E0AEDF88E2ACDF83
:100130008CE0AADF86E0A8DF81E0A6DF8FE39FE105
:100140000197F1F700C000000895CF93DF93EC0111
:100150008991811103C0DF91CF910895B7DFF8CF66
:10016000B5CF613009F4805C80688ECF81E08CDF90
:100170008FE39FE10197F1F700C0000008955D9BB8
:10018000FECF8CB908955F9BFECF8CB10895CF93BD
:10019000DF93EC018991811103C0DF91CF91089524
:1001A000EEDFF8CFCF93DF93C5EDD0E0ECDF89939E
:1001B00080E0C93DD807D1F71092D90085ED90E0D5
:1001C000DF91CF910895CF93DF93FC013496A1E0A6
:1001D000B0E0EC012991CE0134B3AD0101C0440F70
:1001E0002A95EAF7342B34BB25B3242B25BBEC1717
:1001F000FD0779F7FB01AB014D5F5F4F61E070E0F8
:10020000919187B39B0101C0220F9A95EAF7922F33
:100210009095982397BB88B3822B88BB4E175F07B6
:1002200079F7DF91CF910895EF92FF920F931F938B
:10023000CF93DF93FC01D0E001E010E0919185B312
:10024000A80101C0440F9A95EAF7F42E942F9095D7
:10025000982395BBDB01C0E0ED9026B330E00E2C77
:1002600002C0359527950A94E2F720FD23C021E0CE
:1002700030E002C0220F331FEA94E2F786B390E029
:1002800082239323892BD1F385B38F2985BB8D2FAF
:1002900090E0FC01EE0FFF1FE80FF91FE959FF4F37
:1002A000EC0FF11D8081DF91CF911F910F91FF9095
:1002B000EF900895CF5FC33079F695B3942B95BB3B
:1002C000DF5FD43009F0BACF80E0EDCFA398AB9ACE
:1002D000A298AA9AA198A99AA098A89ABC98C49AF8
:1002E000BB98C39ABA98C29A8FEF89B988E18AB944
:1002F00086E880BD7894089546DF8134E9F782E48A
:100300003EDF83E790E021CF8F929F92AF92BF9222
:10031000CF92DF92EF92FF920F931F93CF93DF93D1
:1003200000D000D01F92CDB7DEB75C01CE010196A0
:100330006C0185E0F60111928A95E9F710E000E082
:10034000F12CE12C83E3882E95E0992E60E670E095
:1003500083E690E069DF882381F0833299F08A3266
:1003600009F469C00430110544F4F601E00FF11FEF
:1003700080830F5F1F4F8AE2A9DE83E0E816F10455
:100380002CF316C004301105C1F7FFEFEF1AFF0A76
:100390001D82C601FCDEF7DE843429F5E7DE80E845
:1003A00073DE81E890E0D1DE23E0E216F1044CF048
:1003B000DDDE80E869DE80EA90E0C7DE81E08093E0
:1003C000D4000F900F900F900F900F90DF91CF916E
:1003D0001F910F91FF90EF90DF90CF90BF90AF9063
:1003E0009F908F900895853441F6C0DE80E84CDE02
:1003F00089E890E0AADE80EC47DE83E990E0A5DEA4
:10040000882D8E1963DEF601292D11922A95E9F7C0
:100410008FEF93EDE0E381509040E040E1F700C0C2
:100420000000A4DE80E830DEC5018FDE80EC2CDE2B
:1004300010E000E0A2CFF601292D11922A95E9F7EC
:1004400095DEF2CFCF93DF93ADDEEC0183E497DE50
:100450008DDECE017ADE80EC17DECE01DF91CF910A
:1004600053CF91DE90E00895EF92FF920F931F9388
:10047000CF93DF93CDB7DEB728970FB6F894DEBFE2
:100480000FBECDBF80E800DE1E821D8218861F824F
:100490001A8219821C821B8276DEE82EF12C73DE12
:1004A000082F10E08FEFE816F10419F00F3F110547
:1004B00069F428960FB6F894DEBF0FBECDBFDF916A
:1004C000CF911F910F91FF90EF9008954FDE4AE07A
:1004D00050E0BE016B5F7F4FC70172D04AE050E031
:1004E000BE016F5F7F4FC8016BD0CE0105962DDE38
:1004F00085E2ECDD80E2EADD8EEA90E026DECE01E8
:10050000019623DEC9CF0F931F93CF93DF9300D0C3
:1005100000D0CDB7DEB780E8B7DD1A8219821C8221
:100520001B8231DE082F10E0C8018E5F910902970F
:1005300070F481E00E3F110509F480E00F900F90F8
:100540000F900F90DF91CF911F910F9108950EDEC4
:100550004AE050E0BE016F5F7F4FC80131D0CE014D
:100560000196F3DDDECFCF93B1DED2DD60E670E041
:1005700083E690E028DEC0DE65DF8091D40088232A
:1005800021F0F4DD8AEC90E016C081EB90E0DDDD37
:100590008FE19EE40197F1F700C0000081EC74DD6B
:1005A0008BEB90E0D2DD60DFAEDFC82FDFDD83ECC8
:1005B00090E0C111E7CFC9DD90E080E0CF910895D0
:1005C0004532510518F4423008F004C0FB01108296
:1005D000CB010895BB274A3031F4992322F4BDE2C0
:1005E000909581959F4F01C0BB27FB015527AA27F6
:1005F000880F991FAA1FA41710F0A41B83955051B0
:10060000B9F7A05DAA3308F0A95DA193009779F727
:10061000B111B1931192CB0100C0DC01FC01672F35
:1006200071917723E1F7329704C07C916D937083C9
:0E0630006291AE17BF07C8F30895F894FFCF8C
:10063E0004030203020100313233343536373839C0
:10064E002A3023496E697469616C697A652E2E2E83
:10065E0000436F727265637400496E636F727265E8
:10066E006374005472696573206C6566743A200079
:10067E004163636573732064656E69656400485AEF
:10068E00005475726E206F6E203200456E636F647B
:10069E006572004572726F726500476F6F64204A13
:0406AE006F62000077
:00000001FF
