:1000000012C02CC02BC02AC029C028C027C026C0BF
:1000100025C024C023C022C021C020C01FC01EC0D4
:100020001DC01CC01BC011241FBECFE5D4E0DEBF25
:10003000CDBF10E0A0E6B0E0E0E6F6E002C005903B
:100040000D92A83CB107D9F720E0A8ECB0E001C0C0
:100050001D92AD3CB207E1F7B0D200C3D1CF84FF0F
:100060000BC0969A85FF0AC0959A86FF09C0C79A69
:1000700087FF08C0C69A08959698F4CF9598F5CF53
:10008000C798F6CFC6980895CF93C82FC098E7DFDA
:10009000979A85E08A95F1F7000097988FE193E0B1
:1000A0000197F1F700C000008C2F8295807FD7DF89
:1000B000979A95E09A95F1F7000097988FE39FE162
:1000C0000197F1F700C00000CF910895CF93C82F9A
:1000D000C09AC5DF979A85E08A95F1F70000979856
:1000E0008FE193E00197F1F700C000008C2F82951B
:1000F000807FB5DF979A95E09A95F1F70000979881
:100100008FE39FE10197F1F700C00000CF910895C0
:100110008FEF87BB81BB2FEF89EF90E021508040AC
:100120009040E1F700C0000082E0AEDF88E2ACDF83
:100130008CE0AADF86E0A8DF81E0A6DF8FE39FE105
:100140000197F1F700C000000895CF93DF93EC0111
:100150008991811103C0DF91CF910895B7DFF8CF66
:10016000B5CF613009F4805C80688ECF81E08CDF90
:100170008FE39FE10197F1F700C0000008955D9BB8
:10018000FECF8CB908955F9BFECF8CB10895CF93BD
:10019000DF93EC018991811103C0DF91CF91089524
:1001A000EEDFF8CFCF93DF93C8ECD0E0ECDF89939C
:1001B00080E0CC3CD807D1F71092CC0088EC90E0DE
:1001C000DF91CF910895CF93DF93FC013496A1E0A6
:1001D000B0E0EC012991CE0134B3AD0101C0440F70
:1001E0002A95EAF7342B34BB25B3242B25BBEC1717
:1001F000FD0779F7FB01AB014D5F5F4F61E070E0F8
:10020000919187B39B0101C0220F9A95EAF7922F33
:100210009095982397BB88B3822B88BB4E175F07B6
:1002200079F7DF91CF910895EF92FF920F931F938B
:10023000CF93DF93FC01D0E001E010E0919185B312
:10024000A80101C0440F9A95EAF7F42E942F9095D7
:10025000982395BBDB01C0E0ED9026B330E00E2C77
:1002600002C0359527950A94E2F720FD23C021E0CE
:1002700030E002C0220F331FEA94E2F786B390E029
:1002800082239323892BD1F385B38F2985BB8D2FAF
:1002900090E0FC01EE0FFF1FE80FF91FE959FF4F37
:1002A000EC0FF11D8081DF91CF911F910F91FF9095
:1002B000EF900895CF5FC33079F695B3942B95BB3B
:1002C000DF5FD43009F0BACF80E0EDCFA398AB9ACE
:1002D000A298AA9AA198A99AA098A89ABC98C49AF8
:1002E000BB98C39ABA98C29A8FEF89B988E18AB944
:1002F00086E880BD7894089546DF8134E9F782E48A
:100300003EDF83E790E021CF8F929F92AF92BF9222
:10031000CF92DF92EF92FF920F931F93CF93DF93D1
:1003200000D000D01F92CDB7DEB75C01CE010196A0
:100330007C0185E0F70111928A95E9F710E000E071
:10034000D12CC12C83E3882E95E0992E60E670E0D5
:1003500083E690E069DF882381F0833299F08A3266
:1003600009F466C00430110544F4F701E00FF11FF1
:1003700080830F5F1F4F8AE2A9DE83E0C816D10495
:100380002CF316C0FFEFCF1ADF0AF701E00FF11FC1
:100390001082C701FCDEF7DE843411F5E7DE80E869
:1003A00073DE81E890E0D1DE23E0C216D10434F0A0
:1003B000DDDE80E869DE8FE990E0C7DE0F900F9008
:1003C0000F900F900F90DF91CF911F910F91FF90A1
:1003D000EF90DF90CF90BF90AF909F908F90089557
:1003E000853459F6C3DE80E84FDE8AE890E0ADDE62
:1003F00080EC4ADE85E990E0A8DE882D8C1966DE67
:10040000F701292D11922A95E9F78FEF93EDE0E39B
:1004100081509040E040E1F700C00000A7DE80E896
:1004200033DEC50192DE80EC2FDE10E000E0A5CFC8
:10043000F701292D11922A95E9F798DEF2CFCF9393
:10044000DF93B0DEEC0183E49ADE90DECE017DDE48
:1004500080EC1ADECE01DF91CF9156CF94DE90E092
:100460000895EF92FF920F931F93CF93DF93CDB731
:10047000DEB728970FB6F894DEBF0FBECDBF76DE8D
:1004800080E802DE1E821D8218861F821A8219826F
:100490001C821B8278DEE82EF12C75DE082F10E01E
:1004A0008FEFE816F10419F00F3F110569F4289653
:1004B0000FB6F894DEBF0FBECDBFDF91CF911F9175
:1004C0000F91FF90EF90089551DE4AE050E0BE0199
:1004D0006B5F7F4FC70185D04AE050E0BE016F5F80
:1004E0007F4FC8017ED0CE0105962FDE85E2EEDD7E
:1004F00080E2ECDD8DEA90E028DECE01019625DE7B
:10050000C9CFCF92DF92EF92FF920F931F93CF93B9
:10051000DF9300D000D0CDB7DEB780E8B5DD1A821A
:1005200019821C821B822FDE082F10E0D12CC12CD7
:10053000F12CE12C0F3F1105D1F183E0E816F10415
:1005400094F014DE88EB90E000DE80E00F900F90D6
:100550000F900F90DF91CF911F910F91FF90EF902F
:10056000DF90CF9008950C151D05B9F478018FEF39
:10057000E81AF80AFBDD4AE050E0BE016F5F7F4FEA
:10058000C8012FD0CE010196E0DD8701F12CE12CCE
:10059000FADD6801082F10E0CDCFE8DD80EB90E0B8
:1005A000D4DDC8018C199D09E80EF91EF1CF83E056
:1005B000E816F10434F681E0C9CF88DEA9DD60E6F3
:1005C00070E083E690E0FFDD97DE39DF4ADF99DFF8
:1005D0008823A9F3CBDD8FEB90E0B7DD90E080E0DE
:1005E00008954532510518F4423008F004C0FB016B
:1005F0001082CB010895BB274A3031F4992322F4AD
:10060000BDE2909581959F4F01C0BB27FB01552707
:10061000AA27880F991FAA1FA41710F0A41B83955F
:100620005051B9F7A05DAA3308F0A95DA1930097D6
:1006300079F7B111B1931192CB0100C0DC01FC013B
:10064000672F71917723E1F7329704C07C916D9306
:1006500070836291AE17BF07C8F30895F894FFCF77
:10066000040302030201003132333435363738399E
:100670002A3023496E697469616C697A652E2E2E61
:1006800000436F72726563742100496E636F72720A
:100690006563742100506F7069746F6B3A2000506D
:1006A0006F7069746F6B206E656D612100485A0030
:1006B0004D697373696E67004572726F72650047AA
:0806C0006F6F64204A6F6200B5
:00000001FF
