:1000000012C02CC02BC02AC029C028C027C026C0BF
:1000100025C024C023C022C021C020C01FC01EC0D4
:100020001DC01CC01BC011241FBECFE5D4E0DEBF25
:10003000CDBF10E0A0E6B0E0E8E9FAE002C005902C
:100040000D92A437B107D9F720E0A4E7B0E001C0D2
:100050001D92AD38B207E1F706D31CC5D1CF813070
:1000600049F0823079F082E0211101C080E09111E5
:100070008160089526B325FB222720F996B3929537
:100080009170F1CF26B323FB222720F996B392FB80
:10009000992790F9E8CFCF93DF93D82FE0DFC82FCF
:1000A0008FE99FE00197F1F700C000008D2FD7DFA7
:1000B000282FC81729F0C33029F481E0213039F006
:1000C00080E005C0C11106C081E02230C9F7DF9190
:1000D000CF910895C23029F481E0222339F080E0E5
:1000E00005C0C13069F781E02330C9F78195EFCFB2
:1000F000E199FECF9FBB8EBB6DBBE29AE19A08955A
:10010000E199FECF9FBB8EBBE09A8DB308955D9BB6
:10011000FECF8CB908955F9BFECF8CB10895CF932D
:10012000DF93EC018991811103C0DF91CF91089594
:10013000EEDFF8CFCF93DF93CEE7D0E0ECDF89930B
:1001400080E0C238D807D1F7109282008EE790E0A5
:10015000DF91CF910895E0916800F0916900E83057
:10016000F10508F056C0EA54FF4F099407C012C0C9
:100170001AC022C02AC032C03AC042C024E535E5C8
:100180008DE491E02150304080409040D9F700C08C
:1001900000C000002FEF3FEF87EC2150304080403F
:1001A000E1F700C000009FEF2FEF33E691502040B1
:1001B0003040E1F700C000008FEF9FEF21E3815056
:1001C00090402040E1F700C000003FEF8FEF98E142
:1001D000315080409040E1F700C000002FEF3FE732
:1001E0008CE0215030408040E1F700C000009FEFDC
:1001F0002FE133E0915020403040E1F700C0000093
:100200008FEF9FE821E0815090402040E1F700C04F
:1002100000000895CF92DF92EF92FF920F931F9309
:10022000CF93DF938C01D0E0C0E080E2F82E90E124
:10023000E92E28E0D22E34E0C32EC017D1074CF0AF
:10024000DF91CF911F910F91FF90EF90DF90CF90B2
:10025000089585B38F2585BBAD987DDF85B38E2549
:1002600085BBAC9878DF85B38D2585BBAB9873DFF4
:1002700085B38C2585BBAA986EDF2196DECFCF9201
:10028000DF92EF92FF920F931F93CF93DF938C0136
:10029000D0E0C0E084E0F82E98E0E92E20E1D22EF4
:1002A00030E2C32EC017D1074CF0DF91CF911F91E0
:1002B0000F91FF90EF90DF90CF90089585B38F2539
:1002C00085BBAA9848DF85B38E2585BBAB9843DFF5
:1002D00085B38D2585BBAC983EDF85B38C2585BB6A
:1002E000AD9839DF2196DECF181619060CF492CF9F
:1002F000009721F0919581959109C1CF0895C19AF8
:100300008FED9EE20197F1F700C00000C1980895BB
:1003100082B790E095D1CB0148D3A59AAD98A49A25
:10032000AC98A39AAB98A29AAA98BD98C59ABC9883
:10033000C49ABB98C39ABA98C29AB99AC1988E982F
:10034000969A8F98979AB898C09AA19AA998A09AC5
:10035000A898A69AAE988A9A92988B9A93988C9A13
:1003600094988D9A9598BF9AC798BE9AC6988FEF21
:1003700089B988E18AB986E880BD789408950F9399
:100380001F93CF93DF9381E090E0BADEC1E0C80F06
:100390006C2F81E090E0ACDE8C2FCC0F990B05D355
:1003A000C9E7D0E00AE010E0FCD2B80166D1805D78
:1003B000899380E0CD37D807B9F710927D0089E79F
:1003C00090E0DF91CF911F910F9108950F931F93AC
:1003D000CF93DF93D4DFEC01FC0101900020E9F71B
:1003E000CF018C1B9D0B70D18C01BE01F2D2F801A4
:1003F00080818033B1F08150F8018083C8018FDEA5
:100400008ADE8334D9F796DEBE01DAD2892B59F41D
:1004100084E47DDEA898AE9ADF91CF911F910F9171
:10042000089589E3E9CF85E472DE69DFECCF81E4EA
:100430006EDE2FEF81EE94E0215080409040E1F796
:1004400000C0000068DE823491F7A998A89ABECF58
:100450008699FECF81E080937800E9CF0F931F93B8
:10046000CF93DF93EC018B019CD2B80106D18C0FA6
:100470009D1FDF91CF911F910F910895EF92FF92F1
:100480001F93CF93DF93D09166008BD28AD2CAE0BC
:1004900082E3E82EF12CB0990CC08FEF38DE8FEF9D
:1004A00036DE93989298DF91CF911F91FF90EF9055
:1004B000089581E0F0DD182F18160CF05CC0CF5FB6
:1004C00081E090E0A7DEC5360CF05DC0C7FDC4E654
:1004D00082E0E1DD18160CF058C0DF5F2091640067
:1004E000309165004D2F0D2E000C550B241735074C
:1004F0000CF4D22F20916600309167004D2F0D2E05
:10050000000C550B421753070CF4D22F111103C0E6
:10051000882309F4C0CF8C2FFADD8D2FF8DD809170
:100520006000909161008D1B9109D7FD939597FF15
:1005300003C09195819591099701281B390BC90139
:100540002C2FC7FF02C021E02C0F2595820F911D93
:1005500027FD9A95909375008093740086359105D8
:10056000C4F0939A80917400909175008236910541
:1005700094F0949A90CF882309F4AACFC15081E0D7
:1005800090E07DDEA0CFC0E0A3CF882331F0D15032
:10059000A5CF9398E7CF94987ECF112309F47BCF12
:1005A000BACF8799FECF81E08093770067CFEF9233
:1005B000FF920F931F93CF93C79AC0E010E000E023
:1005C00084E6E82EF12C2FEF83EC99E02150804057
:1005D0009040E1F700C00000E4D1B7014ED0209177
:1005E000740030917500821793077CF48C2F8FDD97
:1005F000C33611F5C69A8FEF8ADDC7989598CF91CB
:100600001F910F91FF90EF900895C7988FE39CE999
:100610000197F1F700C00000C79A0F5F1F4F6FDE10
:10062000C33631F0CF5F0330110569F6C798E3CFC9
:1006300003301105F9F6FACFCF5F10E000E0C3CF29
:10064000FC010FB6F8946091890070918A00809146
:100650008B0090918C000FBE309721F060837183E6
:1006600082839383089554DEA99A929A959AF0DE34
:1006700098DF9DDF90E080E0089597FB072E16F449
:10068000009406D077FD08D00BD007FC05D03EF4CF
:10069000909581959F4F0895709561957F4F08952E
:1006A000AA1BBB1B51E107C0AA1FBB1FA617B70798
:1006B00010F0A61BB70B881F991F5A95A9F78095B4
:1006C0009095BC01CD0108950F931F93CF93DF93B5
:1006D0008230910510F482E090E0E0918700F09183
:1006E000880030E020E0B0E0A0E0309799F42115D8
:1006F000310509F44AC0281B390B24303105D8F5DF
:100700008A819B816115710589F1FB019383828345
:10071000FE0111C0408151810281138148175907A0
:10072000E0F04817590799F4109761F012960C936E
:10073000129713961C933296CF01DF91CF911F91A0
:100740000F9108950093870010938800F4CF21152E
:10075000310551F04217530738F0A901DB019A0126
:10076000BD01DF01F801C1CFEF01F9CF90938800FF
:1007700080938700CDCFFE01E20FF31F8193919309
:100780002250310939832883D7CF209185003091B9
:100790008600232B41F420916C0030916D00309342
:1007A00086002093850020916A0030916B0021150E
:1007B000310541F42DB73EB740916E0050916F0066
:1007C000241B350BE0918500F0918600E217F307BA
:1007D000A0F42E1B3F0B2817390778F0AC014E5FB1
:1007E0005F4F2417350748F04E0F5F1F5093860068
:1007F00040938500819391939FCFF0E0E0E09CCF00
:10080000CF93DF930097E9F0FC01329713821282B5
:10081000A0918700B0918800ED0130E020E01097B2
:10082000A1F420813181820F931F209185003091A6
:1008300086002817390709F061C0F0938600E0931D
:100840008500DF91CF910895EA01CE17DF07E8F523
:100850004A815B819E0141155105B1F7E901FB8396
:10086000EA8349915991C40FD51FEC17FD0761F434
:10087000808191810296840F951FE9019983888375
:10088000828193819B838A83F0E0E0E012968D91D0
:100890009C9113970097B9F52D913C911197CD013B
:1008A0000296820F931F20918500309186002817B1
:1008B000390739F6309751F5109288001092870069
:1008C000B0938600A0938500BCCFD383C2834081C0
:1008D0005181840F951FC817D90761F44E5F5F4F90
:1008E00088819981480F591F518340838A819B8158
:1008F000938382832115310509F0B0CFF0938800EE
:10090000E09387009ECFFD01DC01C0CF13821282ED
:10091000D7CF8F929F92AF92BF92CF92DF92EF92FA
:10092000FF92CF93DF93EC01688179818A819B816B
:10093000611571058105910521F464E279ED8BE57E
:1009400097E02DE133EF41E050E04AD049015A01F0
:100950009B01AC01A7EAB1E45FD06B017C01ACEE76
:10096000B4EFA501940164D0DC01CB018C0D9D1D79
:10097000AE1DBF1DB7FF03C00197A109B048888312
:100980009983AA83BB839F77DF91CF91FF90EF90EC
:10099000DF90CF90BF90AF909F908F900895B9DF78
:1009A000089580E790E0B5DF0895B0E0A0E080937F
:1009B000700090937100A0937200B093730008953B
:1009C000FB01DC018D91019080190110D9F3990B85
:1009D0000895FB01DC0101900D920020E1F70895DC
:1009E000052E97FB16F400940FD057FD05D024D0A8
:1009F00007FC02D046F408C05095409530952195EB
:100A00003F4F4F4F5F4F089590958095709561953A
:100A10007F4F8F4F9F4F089531D0A59F900DB49F6A
:100A2000900DA49F800D911D11240895B7FFF4CF60
:100A3000F3DF821B930B0895A1E21A2EAA1BBB1BA6
:100A4000FD010DC0AA1FBB1FEE1FFF1FA217B3079A
:100A5000E407F50720F0A21BB30BE40BF50B661FB0
:100A6000771F881F991F1A9469F760957095809574
:100A700090959B01AC01BD01CF010895A29FB001EB
:100A8000B39FC001A39F01D0B29F700D811D11249F
:080A9000911D0895F894FFCFB9
:100A98007300640078004600070000008D00200005
:040AA8000100000049
:00000001FF
