:1000000012C02CC02BC02AC029C028C027C026C0BF
:1000100025C024C023C022C021C020C01FC01EC0D4
:100020001DC01CC01BC011241FBECFE5D4E0DEBF25
:10003000CDBF10E0A0E6B0E0E8E9FAE002C005902C
:100040000D92A437B107D9F720E0A4E7B0E001C0D2
:100050001D92AE38B207E1F706D31CC5D1CF81306F
:1000600049F0823081F082E0211101C080E09111DD
:100070008160089526B3221F2227221F96B396FB84
:10008000992790F9F0CF20B326FB222720F990B3CF
:1000900095FB992790F9E7CFCF93DF93D82FDFDF38
:1000A000C82F8FE99FE00197F1F700C000008D2F66
:1000B000D6DF282FC81729F0C33029F481E021307A
:1000C00039F080E005C0C11106C081E02230C9F7D7
:1000D000DF91CF910895C23029F481E0222339F0D5
:1000E00080E005C0C13069F781E02330C9F7819510
:1000F000EFCFE199FECF9FBB8EBB6DBBE29AE19A39
:100100000895E199FECF9FBB8EBBE09A8DB3089511
:100110005D9BFECF8CB908955F9BFECF8CB1089597
:10012000CF93DF93EC018991811103C0DF91CF91CF
:100130000895EEDFF8CFCF93DF93CFE7D0E0ECDF89
:10014000899380E0C338D807D1F7109283008FE7F6
:1001500090E0DF91CF910895E0916800F0916900FF
:10016000E830F10508F056C0E954FF4F099407C084
:1001700012C01AC022C02AC032C03AC042C024E510
:1001800035E58DE491E02150304080409040D9F732
:1001900000C000C000002FEF3FEF87EC215030403F
:1001A0008040E1F700C000009FEF2FEF33E6915051
:1001B00020403040E1F700C000008FEF9FEF21E3C7
:1001C000815090402040E1F700C000003FEF8FEFEA
:1001D00098E1315080409040E1F700C000002FEFDF
:1001E0003FE78CE0215030408040E1F700C0000044
:1001F0009FEF2FE133E0915020403040E1F700C005
:1002000000008FEF9FE821E0815090402040E1F70F
:1002100000C000000895CF92DF92EF92FF920F93FB
:100220001F93CF93DF938C01D0E0C0E080E2F82EE3
:1002300094E0E92E28E0D22E30E1C32EC017D1077A
:100240004CF0DF91CF911F910F91FF90EF90DF90D5
:10025000CF90089585B38F2585BBAD987DDF82B3A0
:100260008E2582BB929878DF82B38D2582BB9398CE
:1002700073DF82B38C2582BB94986EDF2196DECF2C
:10028000CF92DF92EF92FF920F931F93CF93DF9362
:100290008C01D0E0C0E080E1F82E98E0E92E24E067
:1002A000D22E30E2C32EC017D1074CF0DF91CF9190
:1002B0001F910F91FF90EF90DF90CF90089582B340
:1002C0008F2582BB949848DF82B38E2582BB93989A
:1002D00043DF82B38D2582BB92983EDF85B38C25A8
:1002E00085BBAD9839DF2196DECF181619060CF4C0
:1002F00092CF009721F0919581959109C1CF0895F2
:1003000082B790E09DD1CB0150D3A59AAD988A9A3F
:1003100092988B9A93988C9A9498BF98C79ABE9803
:10032000C69A8E98969A8D98959AA59AAD98A29805
:10033000AA9AA398AB9AA498AC9AB99AC198B89A79
:10034000C0988F9A9798BC9AC498BB9AC398BA9A47
:10035000C298A19AA998A09AA898BD9AC5988FEF1B
:1003600089B988E18AB986E880BD78940895AD9A04
:100370008FED9EE20197F1F700C00000AD9808955F
:100380000F931F93CF93DF93EC018B010AD3B80136
:1003900074D18C0F9D1FDF91CF911F910F91089504
:1003A0000F931F93CF93DF9381E090E0AADEC1E02B
:1003B000C80F6C2F81E090E09CDE8C2FCC0F990B46
:1003C000F4D2CAE7D0E00AE010E0EBD2B80155D190
:1003D000805D899380E0CE37D807B9F710927E0010
:1003E0008AE790E0DF91CF911F910F9108950F93CD
:1003F0001F93CF93DF93D4DFEC01FC010190002029
:10040000E9F7CF018C1B9D0B5FD18C01BE01E1D2BE
:10041000F80180818033B1F08150F8018083C801F8
:100420007FDE7ADE8334D9F786DEBE01C9D2892B1E
:1004300059F484E46DDEC098979ADF91CF911F91B3
:100440000F91089589E3E9CF85E462DE90DFECCF78
:1004500081E45EDE2FEF81EE94E0215080409040F9
:10046000E1F700C0000058DE823491F7C198C09ACD
:10047000BECF9A99FECF81E080937700E9CFEF92CB
:10048000FF921F93CF93DF93D0916600CAE082E37F
:10049000E82EF12C9C990CC08FEF3ADE8FEF38DEFE
:1004A000C398C498DF91CF911F91FF90EF9008956A
:1004B00081E0F2DD182F18160CF05CC0CF5F81E0F0
:1004C00090E0A9DEC5360CF05DC0C7FDC4E682E051
:1004D000E3DD18160CF058C0DF5F20916400309106
:1004E00065004D2F0D2E000C550B241735070CF40D
:1004F000D22F20916600309167004D2F0D2E000CF9
:10050000550B421753070CF4D22F111103C0882347
:1005100009F4C0CF8C2FFCDD8D2FFADD80916000B7
:10052000909161008D1B9109D7FD939597FF03C0B2
:100530009195819591099701281B390BC9012C2FA1
:10054000C7FF02C021E02C0F2595820F911D27FDCA
:100550009A95909379008093780086359105C4F040
:10056000C39A80917800909179008236910594F039
:10057000C29A90CF882309F4AACFC15081E090E0BD
:100580007FDEA0CFC0E0A3CF882331F0D150A5CF2C
:10059000C398E7CFC2987ECF112309F47BCFBACF9F
:1005A0009B99FECF81E08093760069CFEF92FF9216
:1005B0000F931F93CF93A89AC0E010E000E084E669
:1005C000E82EF12C2FEF83EC99E0215080409040F1
:1005D000E1F700C00000E5D1B7014FD020917800CD
:1005E00030917900821793077CF48C2F91DDC3360C
:1005F00019F5C59A8FEF8CDDA898A998CF911F9116
:100600000F91FF90EF900895A8988FE39CE90197D0
:10061000F1F700C00000A89A0F5F1F4FA8DEC33695
:1006200039F0CF5F0330110569F6A8988EEFE3CF5C
:1006300003301105F1F6F9CFCF5F10E000E0C2CF33
:10064000FC010FB6F89460918A0070918B00809144
:100650008C0090918D000FBE309721F060837183E4
:100660008283938308954CDEC19AC49AA99A01DFCC
:1006700097DF9CDF90E080E0089597FB072E16F44B
:10068000009406D077FD08D00BD007FC05D03EF4CF
:10069000909581959F4F0895709561957F4F08952E
:1006A000AA1BBB1B51E107C0AA1FBB1FA617B70798
:1006B00010F0A61BB70B881F991F5A95A9F78095B4
:1006C0009095BC01CD0108950F931F93CF93DF93B5
:1006D0008230910510F482E090E0E0918800F09182
:1006E000890030E020E0B0E0A0E0309799F42115D7
:1006F000310509F44AC0281B390B24303105D8F5DF
:100700008A819B816115710589F1FB019383828345
:10071000FE0111C0408151810281138148175907A0
:10072000E0F04817590799F4109761F012960C936E
:10073000129713961C933296CF01DF91CF911F91A0
:100740000F9108950093880010938900F4CF21152C
:10075000310551F04217530738F0A901DB019A0126
:10076000BD01DF01F801C1CFEF01F9CF90938900FE
:1007700080938800CDCFFE01E20FF31F8193919308
:100780002250310939832883D7CF209186003091B8
:100790008700232B41F420916C0030916D00309341
:1007A00087002093860020916A0030916B0021150C
:1007B000310541F42DB73EB740916E0050916F0066
:1007C000241B350BE0918600F0918700E217F307B8
:1007D000A0F42E1B3F0B2817390778F0AC014E5FB1
:1007E0005F4F2417350748F04E0F5F1F5093870067
:1007F00040938600819391939FCFF0E0E0E09CCFFF
:10080000CF93DF930097E9F0FC01329713821282B5
:10081000A0918800B0918900ED0130E020E01097B0
:10082000A1F420813181820F931F209186003091A5
:1008300087002817390709F061C0F0938700E0931B
:100840008600DF91CF910895EA01CE17DF07E8F522
:100850004A815B819E0141155105B1F7E901FB8396
:10086000EA8349915991C40FD51FEC17FD0761F434
:10087000808191810296840F951FE9019983888375
:10088000828193819B838A83F0E0E0E012968D91D0
:100890009C9113970097B9F52D913C911197CD013B
:1008A0000296820F931F20918600309187002817AF
:1008B000390739F6309751F5109289001092880067
:1008C000B0938700A0938600BCCFD383C2834081BE
:1008D0005181840F951FC817D90761F44E5F5F4F90
:1008E00088819981480F591F518340838A819B8158
:1008F000938382832115310509F0B0CFF0938900ED
:10090000E09388009ECFFD01DC01C0CF13821282EC
:10091000D7CF8F929F92AF92BF92CF92DF92EF92FA
:10092000FF92CF93DF93EC01688179818A819B816B
:10093000611571058105910521F464E279ED8BE57E
:1009400097E02DE133EF41E050E04AD049015A01F0
:100950009B01AC01A7EAB1E45FD06B017C01ACEE76
:10096000B4EFA501940164D0DC01CB018C0D9D1D79
:10097000AE1DBF1DB7FF03C00197A109B048888312
:100980009983AA83BB839F77DF91CF91FF90EF90EC
:10099000DF90CF90BF90AF909F908F900895B9DF78
:1009A000089580E790E0B5DF0895B0E0A0E080937F
:1009B000700090937100A0937200B093730008953B
:1009C000FB01DC018D91019080190110D9F3990B85
:1009D0000895FB01DC0101900D920020E1F70895DC
:1009E000052E97FB16F400940FD057FD05D024D0A8
:1009F00007FC02D046F408C05095409530952195EB
:100A00003F4F4F4F5F4F089590958095709561953A
:100A10007F4F8F4F9F4F089531D0A59F900DB49F6A
:100A2000900DA49F800D911D11240895B7FFF4CF60
:100A3000F3DF821B930B0895A1E21A2EAA1BBB1BA6
:100A4000FD010DC0AA1FBB1FEE1FFF1FA217B3079A
:100A5000E407F50720F0A21BB30BE40BF50B661FB0
:100A6000771F881F991F1A9469F760957095809574
:100A700090959B01AC01BD01CF010895A29FB001EB
:100A8000B39FC001A39F01D0B29F700D811D11249F
:080A9000911D0895F894FFCFB9
:100A98007300640078004600070000008E00200004
:040AA8000100000049
:00000001FF
