:1000000012C02CC02BC02AC029C028C027C026C0BF
:1000100025C024C023C022C021C020C01FC01EC0D4
:100020001DC01CC01BC011241FBECFE5D4E0DEBF25
:10003000CDBF10E0A0E6B0E0E2EAF6E002C0059035
:100040000D92A636B107D9F720E0A6E6B0E001C0D0
:100050001D92AD37B207E1F739D221C3D1CF5D9BF5
:10006000FECF8CB908955F9BFECF8CB10895CF93DE
:10007000DF93EC018991811103C0DF91CF91089545
:10008000EEDFF8CFCF93DF93C2E7D0E0ECDF8993C8
:1000900080E0C637D807D1F71092760082E790E06B
:1000A000DF91CF910895E0916000F0916100E83018
:1000B000F10508F056C0E25AFF4F099407C012C07C
:1000C0001AC022C02AC032C03AC042C024E535E579
:1000D0008DE491E02150304080409040D9F700C03D
:1000E00000C000002FEF3FEF87EC215030408040F0
:1000F000E1F700C000009FEF2FEF33E69150204062
:100100003040E1F700C000008FEF9FEF21E3815006
:1001100090402040E1F700C000003FEF8FEF98E1F2
:10012000315080409040E1F700C000002FEF3FE7E2
:100130008CE0215030408040E1F700C000009FEF8C
:100140002FE133E0915020403040E1F700C0000043
:100150008FEF9FE821E0815090402040E1F700C000
:1001600000000895CF92DF92EF92FF920F931F93BA
:10017000CF93DF938C01D0E0C0E080E2F82E90E1D5
:10018000E92E28E0D22E34E0C32EC017D1074CF060
:10019000DF91CF911F910F91FF90EF90DF90CF9063
:1001A000089585B38F2585BBAD987DDF85B38E25FA
:1001B00085BBAC9878DF85B38D2585BBAB9873DFA5
:1001C00085B38C2585BBAA986EDF2196DECFCF92B2
:1001D000DF92EF92FF920F931F93CF93DF938C01E7
:1001E000D0E0C0E084E0F82E98E0E92E20E1D22EA5
:1001F00030E2C32EC017D1074CF0DF91CF911F9191
:100200000F91FF90EF90DF90CF90089585B38F25E9
:1002100085BBAA9848DF85B38E2585BBAB9843DFA5
:1002200085B38D2585BBAC983EDF85B38C2585BB1A
:10023000AD9839DF2196DECF82B790E034D1CB0183
:10024000C0D1A59AAD98A49AAC98A39AAB98A29A5B
:10025000AA98BD98C59ABC98C49ABB98C39ABA98F4
:10026000C29AB99AC1988E98969A8F98979AB89888
:10027000C09AA19AA998A09AA898A69AAE988A9A84
:1002800092988B9A93988C9A94988D9A9598BF9AF5
:10029000C798BE9AC6988FEF89B988E18AB986E86F
:1002A00080BD789408950F931F93CF93DF93CDE68D
:1002B000D0E00AE010E081D1B80110D1805D8993CF
:1002C00080E0C137D807B9F7109271008DE690E051
:1002D000DF91CF911F910F910895CF93DF93E3DFCB
:1002E000EC01CE01C4DEBFDE8334D9F7CBDEBE0124
:1002F00073D1892B39F484E4B2DEA898AE9ADF91E9
:10030000CF91089585E4ABDEC19A2FEF81EE94E0A2
:10031000215080409040E1F700C00000C198E6CF36
:1003200081E49DDE2FEF81EE94E0215080409040EB
:10033000E1F700C0000097DE823491F7A998A89AEF
:10034000CCCF8699FECF81E080936C00E9CF181660
:1003500019060CF407CF009721F09195819591092A
:1003600036CF08952AD168E671E0B8D00895B59BDC
:1003700004C082E0B4998160089580E0FBCF8130B1
:1003800049F0823079F082E0211101C080E09111C2
:100390008160089526B325FB222720F996B3929514
:1003A0009170F1CF26B323FB222720F996B392FB5D
:1003B000992790F9E8CFCF93D5DF81E0E0DFC82F10
:1003C000B09902C0CF91089581E0D9DFC817A9F094
:1003D000C33079F4813089F480916800909169008C
:1003E0000196909369008093680081E090E0BADE06
:1003F00004C0C11128C0823079F320916800309187
:1004000069008091660090916700821793078CF5D0
:1004100081E090E0A7DE80916600909167000196F0
:1004200090936700809366008091660090916700CA
:1004300016DE81E0A4DFC82F8FE99FE00197F1F776
:1004400000C00000BDCFC23079F48111D6CF8091B9
:10045000680090916900019790936900809368000B
:1004600081E090E0B4DEC9CFC13039F6833029F69F
:10047000EECF2091680030916900809166009091E4
:10048000670028173907ACF681E090E0A0DE809184
:100490006600909167000197C3CF8799FECF81E0F6
:1004A00080936B0088CFFC010FB6F89460917900BF
:1004B00070917A0080917B0090917C000FBE309704
:1004C00021F060837183828393830895B5DEA99AB6
:1004D000929A959AE2DF90E080E0089597FB072ECC
:1004E00016F4009406D077FD08D00BD007FC05D099
:1004F0003EF4909581959F4F0895709561957F4F3B
:100500000895AA1BBB1B51E107C0AA1FBB1FA6175A
:10051000B70710F0A61BB70B881F991F5A95A9F7AC
:1005200080959095BC01CD0108958F929F92AF92D6
:10053000BF92CF92DF92EF92FF92CF93DF93EC01C5
:10054000688179818A819B81611571058105910599
:1005500021F464E279ED8BE597E02DE133EF41E0A2
:1005600050E043D049015A019B01AC01A7EAB1E434
:1005700058D06B017C01ACEEB4EFA50194015DD0C5
:10058000DC01CB018C0D9D1DAE1DBF1DB7FF03C04F
:100590000197A109B04888839983AA83BB839F7779
:1005A000DF91CF91FF90EF90DF90CF90BF90AF9011
:1005B0009F908F900895B9DF089582E690E0B5DFAF
:1005C0000895B0E0A0E08093620090936300A09350
:1005D0006400B09365000895FB01DC018D910190EA
:1005E00080190110D9F3990B0895052E97FB16F485
:1005F00000940FD057FD05D024D007FC02D046F45C
:1006000008C050954095309521953F4F4F4F5F4F13
:10061000089590958095709561957F4F8F4F9F4F6E
:10062000089531D0A59F900DB49F900DA49F800D8B
:10063000911D11240895B7FFF4CFF3DF821B930BB4
:100640000895A1E21A2EAA1BBB1BFD010DC0AA1F13
:10065000BB1FEE1FFF1FA217B307E407F50720F02B
:10066000A21BB30BE40BF50B661F771F881F991FA6
:100670001A9469F760957095809590959B01AC01EF
:10068000BD01CF010895A29FB001B39FC001A39FF8
:1006900001D0B29F700D811D1124911D0895F89411
:0206A000FFCF8A
:0606A2000700010000004A
:00000001FF
